:020000040800F2
:100000005008002081010008FD3A00085134000822
:1000100000000000000000000000000000000000E0
:10002000000000000000000000000000033B00088A
:100030000000000000000000013B0008553B0008E4
:1000400093010008000000009301000893010008DC
:100050009301000893010008930100089301000830
:1000600000000000930100089301000893010008BC
:1000700091030008153C0008493C000800000000FE
:10008000930100080000000000000000D93B0008B8
:10009000000000009301000893010008930100088C
:1000A0000000000093010008000000009301000818
:1000B00093010008000000000000000000000000A4
:1000C00000F002F800F04CF812A030C808382418EC
:1000D0002D18AC4201D100F043F80FCCA246AB463C
:1000E0000CA730CF2D1B083F3F197C427F1E544484
:1000F0002D090426F441641EAC4201D300F030F80F
:100100000126334200D0FB1A3343984754465D46DC
:10011000DFE70000CC4D0000EC4D0000103A02D3A8
:1001200078C878C1FAD8520701D330C830C101D598
:1001300004680C6070470000704700000023002432
:1001400000250026103A01D378C1FBD8520700D30E
:1001500030C100D50B6070471FB51FBD10B510BD75
:1001600000F0E3F81146FFF7F7FF04F0ADFD00F0F3
:10017000FBF803B4FFF7F2FF03BC00F001F9000045
:100180000748804707480047FEE7FEE7FEE7FEE72F
:10019000FEE7FEE704480549054A064B70470000A4
:1001A000C93B0008C1000008500200205008002090
:1001B0005004002050040020002203098B422CD35D
:1001C000030A8B4211D300239C464EE003460B43A7
:1001D0003CD4002243088B4231D303098B421CD309
:1001E000030A8B4201D394463FE0C3098B4201D3FB
:1001F000CB01C01A524183098B4201D38B01C01A33
:10020000524143098B4201D34B01C01A52410309A9
:100210008B4201D30B01C01A5241C3088B4201D358
:10022000CB00C01A524183088B4201D38B00C01A05
:10023000524143088B4201D34B00C01A5241411A2C
:1002400000D201465241104670475DE0CA0F00D00F
:100250004942031000D3404253409C460022030908
:100260008B422DD3030A8B4212D38901FC2212BA8E
:10027000030A8B420CD3890192118B4208D3890166
:1002800092118B4204D389013AD0921100E089097E
:10029000C3098B4201D3CB01C01A524183098B425F
:1002A00001D38B01C01A524143098B4201D34B0148
:1002B000C01A524103098B4201D30B01C01A5241AB
:1002C000C3088B4201D3CB00C01A524183088B4232
:1002D00001D38B00C01A5241D9D243088B4201D3BB
:1002E0004B00C01A5241411A00D2014652411046F9
:1002F00063465B1001D34042002B00D54942704752
:1003000063465B1000D3404201B50549002802DC7A
:10031000491C084000E00846C046C04602BD00BF78
:10032000FFFFFF7F704770477047754600F024F865
:10033000AE46050069465346C008C000854618B061
:1003400020B5FFF727FF60BCB64600260027C0C5D2
:10035000C0C5C0C5C0C5C0C5C0C5C0C5C0C5403D7D
:10036000490849008D46704710B50446C046C0464E
:100370002046FFF7FEFE10BD00487047D800002061
:1003800001491820ABBEFEE72600020070470000BE
:1003900080B5024800F0B8FF80BDC0464C01002087
:1003A00080B584B002900298006803F030F90090A4
:1003B0000298006803F034F9002843D0FFE7009862
:1003C00000283FD1FFE702980068806805210840B7
:1003D000012809D1FFE70298006803F077F8029836
:1003E0000168032008600CE00299886D1022104318
:1003F0008865029AD16D01200143D16503A9087077
:1004000024E001F0B5FC0190FFE7029800688068E5
:10041000C007002815D0FFE701F0AAFC0199401A97
:1004200003280DD3FFE70299886D102210438865D9
:10043000029AD16D01200143D16503A9087005E03E
:10044000E3E7FFE703A900200870FFE703A80078AF
:1004500004B080BD80B584B0029000200090029866
:10046000006803F0DDF8002863D1FFE70298006818
:100470008068344908420DD0FFE70299886D102248
:1004800010438865029AD16D01200143D16503A90B
:10049000087052E00298006803F04EF82A4803F012
:1004A00098F80002002811D5FFE72848006828497D
:1004B000FFF782FE401C0090FFE70098002804D060
:1004C000FFE70098401E0090F7E7FFE70298407EA4
:1004D00001282DD0FFE701F04BFC0190FFE70298C7
:1004E00000680068C007002821D1FFE70298006873
:1004F00003F096F8002805D1FFE70298006803F0A2
:100500001BF8FFE701F034FC0199401A03280DD3D2
:10051000FFE70299886D102210438865029AD16D19
:1005200001200143D16503A9087006E0D7E7FFE782
:10053000FFE703A900200870FFE703A8007804B0D4
:1005400080BDC04617000080082701400000002041
:10055000400D030081B0EFF3108072B60090FFE70A
:10056000FEE780B588B00690002004900190FFE778
:1005700006985421405C012804D1FFE707A9022016
:100580000870B9E00699542201208854FFE7FFE77C
:100590000698FFF705FF05A908700698006803F0A4
:1005A00047F8002800D097E00698806D02210843A4
:1005B0000121090288430699886506980068C06889
:1005C00003221040039006980168C8689043C860F1
:1005D00000200290FFE70298072834D8FFE706982A
:1005E000006803F004F9FFE70698006803F008F8D4
:1005F00000281BD0FFE70498401C04900498C00A10
:10060000572812D3FFE70698806D10210843022176
:10061000884306998865FFE706995422002088548C
:10062000FFE707A90120087066E0DDE7069800688B
:1006300002F0C6FF0146019840180190FFE70298BA
:10064000401C0290C7E702990198FFF7B5FD0190A1
:100650000698006802F07CFF06980068019903F094
:1006600083F80698006802F03DFF01F081FB0090DE
:10067000FFE70698006802F0DBFF00281DD0FFE7C7
:1006800001F076FB0099401A032815D3FFE706987E
:10069000006802F0CDFF00280DD0FFE70699886DB5
:1006A000102210438865069AD16D01200143D1655F
:1006B00007A9087020E0FFE7DBE7039A06980168C6
:1006C000C8681043C8600698806D01210843022164
:1006D00088430699886505E00699886D10221043C5
:1006E0008865FFE7FFE70699542200208854FFE75A
:1006F000059807A90870FFE707A8007808B080BD33
:1007000081B0009001B0704781B0009001B0704797
:1007100081B0009001B0704781B0009001B0704787
:1007200080B5BCB03A90399138A900200870359056
:100730003998406803218905884201D1FFE7FFE726
:100740003A983C21405C012801D1FFE700E0FFE737
:10075000FFE73A985421405C012804D1FFE73BA908
:100760000220087076E33A99542201208854FFE76A
:10077000FFE73A98006802F075FF002800D036E3E2
:1007800039980068FD4988426AD1FFE73A980068C5
:1007900002F046FF002816D0FFE7012035903A9876
:1007A000FFF7FEFD014638A801700078002809D146
:1007B000FFE73A98806D01210843090288433A997E
:1007C0008865FFE7FFE73998406834900121C90543
:1007D000884213D0FFE7349803218905884214D159
:1007E000FFE73A98006839998A6803218B051A4314
:1007F00009068A43E14902F08DFF0DE03A9800684E
:10080000DE49DF4A02F086FF06E03A980068DB49DD
:10081000002202F07FFFFFE73598012806D1FFE7AD
:100820003A98FFF717FE38A90870FFE73A99886DE4
:1008300001221204904388653A98006802F00AFE8B
:100840003998007B012805D1FFE73A98006802F04B
:100850008BFE04E03A98006802F050FEFFE7C5E224
:100860003998406833900121C905884200D172E26D
:10087000339803218905884200D074E239980068D2
:10088000C049884200D02FE1399880684002002892
:1008900008D1FFE7399880681F2189060840800E3B
:1008A000329017E13998007AC007002803D0FFE79B
:1008B000002031900BE13998007A8007002803D599
:1008C000FFE701203090FFE03998007A40070028C8
:1008D00003D5FFE702202F90F3E03998007A000754
:1008E000002803D5FFE703202E90E7E03998007A2F
:1008F000C006002803D5FFE704202D90DBE03998DF
:10090000007A8006002803D5FFE705202C90CFE071
:100910003998007A4006002803D5FFE706202B907F
:10092000C3E03998007A0006002803D5FFE70720C6
:100930002A90B7E03998407AC007002803D0FFE733
:1009400008202990ABE03998407A8007002803D529
:10095000FFE7092028909FE03998407A4007002857
:1009600003D5FFE70A20279093E03998407A0007E3
:10097000002803D5FFE70B20269087E03998407ABE
:10098000C006002803D5FFE70C2025907BE03998AE
:10099000407A8006002803D5FFE70D2024906FE001
:1009A0003998407A4006002803D5FFE70E202390AF
:1009B00063E03998407A0006002803D5FFE70F204E
:1009C000229057E03998807AC007002803D0FFE7CB
:1009D000102021904BE03998807A8007002803D5B9
:1009E000FFE7112020903FE03998807A40070028E7
:1009F00003D5FFE712201F9033E03998807A000773
:100A0000002803D5FFE713201E9027E03998807A4D
:100A1000C006002803D5FFE714201D901BE039987D
:100A2000807A8006002803D5FFE715201C900FE090
:100A300039988168012082051140162000231A93FD
:100A400091421B9001D01A981B901B981C90FFE7B5
:100A50001C981D90FFE71D981E90FFE71E981F90A1
:100A6000FFE71F982090FFE720982190FFE721984B
:100A70002290FFE722982390FFE723982490FFE736
:100A800024982590FFE725982690FFE72698279041
:100A9000FFE727982890FFE728982990FFE72998F3
:100AA0002A90FFE72A982B90FFE72B982C90FFE7DE
:100AB0002C982D90FFE72D982E90FFE72E982F90E1
:100AC000FFE72F983090FFE730983190FFE731989B
:100AD0003290FFE73298012383403A980168A022C0
:100AE00088581843885035E13998806840020028BA
:100AF00008D1FFE7399880681F2189060840800ED9
:100B000019901DE13998007AC007002803D0FFE74B
:100B10000020189011E13998007A8007002803D549
:100B2000FFE70120179005E13998007A4007002877
:100B300003D5FFE702201690F9E03998007A000704
:100B4000002803D5FFE703201590EDE03998007ADF
:100B5000C006002803D5FFE704201490E1E039988F
:100B6000007A8006002803D5FFE705201390D5E022
:100B70003998007A4006002809D505E00000C07CBD
:100B8000FFFF8700FFFF170006201290C3E039988F
:100B9000007A0006002803D5FFE707201190B7E090
:100BA0003998407AC007002803D0FFE7082010904A
:100BB000ABE03998407A8007002803D5FFE7092089
:100BC0000F909FE03998407A4007002803D5FFE74F
:100BD0000A200E9093E03998407A0007002803D548
:100BE000FFE70B200D9087E03998407AC006002877
:100BF00003D5FFE70C200C907BE03998407A800603
:100C0000002803D5FFE70D200B906FE03998407A5C
:100C10004006002803D5FFE70E200A9063E03998CC
:100C2000407A0006002803D5FFE70F20099057E01F
:100C30003998807AC007002803D0FFE71020089079
:100C40004BE03998807A8007002803D5FFE7112010
:100C500007903FE03998807A4007002803D5FFE7E6
:100C60001220069033E03998807A0007002803D5D7
:100C7000FFE71320059027E03998807AC006002806
:100C800003D5FFE7142004901BE03998807A800692
:100C9000002803D5FFE7152003900FE039988168FD
:100CA00001208205114016200023019391420290F9
:100CB00001D00198029002980390FFE703980490F6
:100CC000FFE704980590FFE705980690FFE7069870
:100CD0000790FFE707980890FFE708980990FFE75B
:100CE00009980A90FFE70A980B90FFE70B980C9081
:100CF000FFE70C980D90FFE70D980E90FFE70E9818
:100D00000F90FFE70F981090FFE710981190FFE702
:100D100011981290FFE712981390FFE71398149020
:100D2000FFE714981590FFE715981690FFE71698BF
:100D30001790FFE717981890FFE718981990FFE7AA
:100D40001998012383403A980168A42288581843CF
:100D50008850FFE70FE03A98006839990968404ADF
:100D600002F0D8FC07E03A98006839990968002237
:100D700002F0D0FCFFE7399800683A4988421AD15E
:100D8000FFE73A99886D01225204904388653A98AA
:100D9000006802F066FB3998007B012805D1FFE767
:100DA0003A98006802F0E9FB04E03A98006802F023
:100DB000AEFBFFE719E03A99886D01229204904357
:100DC00088653A98006802F054FB3998007B012846
:100DD00005D1FFE73A98006802F0D9FB04E03A98A1
:100DE000006802F09EFBFFE7FFE7FFE7FFE73998A7
:100DF00000681A49884214D1FFE7399800693A9986
:100E00000968C968182211408908884037903998C4
:100E100040693A990968C968114089088840369044
:100E200006E0399800693790399840693690FFE7B5
:100E30003A98006839990968379A369B02F022FB84
:100E4000FFE73A99542200208854FFE738983BA9DD
:100E50000870FFE73BA800783CB080BD0000C07C74
:100E6000FFFF8700FFFF170080B5A0B01E901D9107
:100E70001CA9002008701A901E9800690121C9075A
:100E8000884206D0FFE71E980069FB49884201D1DD
:100E9000FFE700E0FFE7FFE71E985421405C0128D0
:100EA00004D1FFE71FA90220087015E21E99542201
:100EB00001208854FFE7FFE71E98006802F0D2FB8C
:100EC000002800D0F5E11D984068022800D1AEE16D
:100ED0001E9800690121C907884206D0FFE71E98C5
:100EE0000069E549884207D1FFE71E9800681D990F
:100EF000096802F0CBFB4AE11E98016E1D98436819
:100F00001F2213400F229A4091431991006840021A
:100F1000002808D1FFE71D9800681F2189060840B6
:100F2000800E189017E11D980078C007002803D0A4
:100F3000FFE7002017900BE11D980078800700283C
:100F400003D5FFE701201690FFE01D9800784007C9
:100F5000002803D5FFE702201590F3E01D980078E4
:100F60000007002803D5FFE703201490E7E01D9851
:100F70000078C006002803D5FFE704201390DBE0CB
:100F80001D9800788006002803D5FFE70520129001
:100F9000CFE01D9800784006002803D5FFE7062023
:100FA0001190C3E01D9800780006002803D5FFE7E4
:100FB00007201090B7E01D984078C007002803D0A4
:100FC000FFE708200F90ABE01D98407880070028CD
:100FD00003D5FFE709200E909FE01D984078400759
:100FE000002803D5FFE70A200D9093E01D98407874
:100FF0000007002803D5FFE70B200C9087E01D9821
:101000004078C006002803D5FFE70C200B907BE05A
:101010001D9840788006002803D5FFE70D200A9030
:101020006FE01D9840784006002803D5FFE70E20AA
:10103000099063E01D9840780006002803D5FFE77B
:101040000F20089057E01D988078C007002803D033
:10105000FFE7102007904BE01D988078800700285C
:1010600003D5FFE7112006903FE01D9880784007E8
:10107000002803D5FFE71220059033E01D98807803
:101080000007002803D5FFE71320049027E01D98F0
:101090008078C006002803D5FFE7142003901BE0EA
:1010A0001D9880788006002803D5FFE71520029060
:1010B0000FE01D98016801208205114016200023D1
:1010C00000939142019001D0009801900198029004
:1010D000FFE702980390FFE703980490FFE7049866
:1010E0000590FFE705980690FFE706980790FFE751
:1010F00007980890FFE708980990FFE709980A9079
:10110000FFE70A980B90FFE70B980C90FFE70C980D
:101110000D90FFE70D980E90FFE70E980F90FFE7F8
:101120000F981090FFE710981190FFE71198129018
:10113000FFE712981390FFE713981490FFE71498B5
:101140001590FFE715981690FFE716981790FFE7A0
:1011500017981890FFE7199818991D9A52681F233D
:101160001A40914008431E9908661D9840688008FF
:10117000401C1E99C969884208D8FFE71E9800687C
:101180001D9A5168126802F09FFAFFE7FFE71E9868
:1011900000681D9A1168926802F0F4FA1D98C078F0
:1011A0000006002842D5FFE74E4802F012FA1B90D5
:1011B0001D9800684C49884221D1FFE71BA8807820
:1011C000000600281BD4FFE71B990120C00501433E
:1011D000444802F0EBFA464800684649FEF7ECFF47
:1011E00001460C204843401C1A90FFE71A9800283B
:1011F00004D0FFE71A98401E1A90F7E715E01D98F3
:1012000000683A4988420ED1FFE71BA88078400663
:10121000002808D4FFE71B990120800501433148CD
:1012200002F0C4FA00E0FFE7FFE7FFE740E01E98A6
:1012300000690121C907884206D0FFE71E980069AE
:101240002749884207D1FFE71E9800681D99096861
:1012500002F02AFAFFE71D98C0780006002826D57C
:10126000FFE7204802F0B5F91B901D9800681E4961
:1012700088420BD102E0C046040000801B99012087
:10128000C0058143174802F091FA0FE01D980068ED
:101290001649884208D1FFE71B9901208005814348
:1012A000104802F083FA00E0FFE7FFE7FFE7FFE7FF
:1012B00008E01E99886D2022104388651CA9012032
:1012C0000870FFE7FFE71E99542200208854FFE7CB
:1012D0001C981FA90870FFE71FA8007820B080BDE8
:1012E0000400008008270140000200A4000400A8B8
:1012F00000000020400D030081B0009001B0704755
:1013000081B0009001B0704780B586B00590002094
:10131000049005980068006803900598006840688C
:10132000029003A80078800700281BD5FFE702A8D9
:1013300000788007002815D5FFE70598806DC00666
:10134000002807D4FFE70599886D0122D2021043D7
:101350008865FFE70598FFF7D7F90598016802202F
:101360000860FFE703A800784007002806D5FFE7DC
:1013700002980421084004280CD0FFE703A8007855
:101380000007002851D5FFE702A8007800070028D1
:101390004BD5FFE70598806DC006002807D4FFE70E
:1013A0000599886D0122520210438865FFE7059870
:1013B000006802F060F900282FD0FFE70598807ED2
:1013C00000282AD1FFE70598006800680007002878
:1013D00022D5FFE70598006802F044F900280FD1F4
:1013E000FFE70598016848680C229043486005981B
:1013F000806D0121084309028843059988650AE048
:101400000599886D2022104388650599C86D0122D1
:101410001043C865FFE7FFE7FFE70598FFF76CFF9C
:10142000059801680C200860FFE703A80078000613
:10143000002814D5FFE702A80078000600280ED582
:10144000FFE70599886D012212041043886505980D
:1014500000F054FA0598016880200860FFE703A8AF
:101460004078C007002816D0FFE702A84078C007E0
:10147000002810D0FFE70599886D012201925204DF
:10148000104388650598FFF743F9019805990968A5
:1014900000020860FFE703A840788007002816D5FF
:1014A000FFE702A840788007002810D5FFE70599DC
:1014B000886D012200929204104388650598FFF719
:1014C0002BF900980599096840020860FFE703A816
:1014D0000078C006002831D5FFE702A80078C006D2
:1014E00000282BD5FFE70598006B002803D1FFE704
:1014F000012004900AE00598006802F0ABF800288B
:1015000003D0FFE701200490FFE7FFE704980128DC
:101510000FD1FFE70599886D01229202104388657B
:101520000599C86D02221043C8650598FFF7E8FECB
:10153000FFE70598016810200860FFE703A84078DE
:10154000800600280FD5FFE702A840788006002813
:1015500009D5FFE70598FFF7D3F805980168012042
:1015600040030860FFE706B080BD000080B58AB088
:10157000089007A90020087006900590039008982D
:10158000002804D1FFE709A901200870A6E1089806
:101590000069002809D0FFE7089800690121490582
:1015A000884201D1FFE7FFE7FFE70898806D002838
:1015B0000AD1FFE7089800F0A5F908990020C8654E
:1015C000089954228854FFE70898006802F038F818
:1015D000002815D1FFE70898006801F0E3FFC14833
:1015E0000068C149FEF7E8FD40000390FFE703985B
:1015F000002804D0FFE70398401E0390F7E7FFE7B9
:101600000898006802F01CF800280DD1FFE708993F
:10161000886D102210438865089AD16D012001431E
:10162000D16507A90870FFE70898006802F01AF86A
:1016300004900898806DC006002800D541E1049808
:10164000002800D03DE10898806D02210843012167
:1016500009028843089988650898006801F0E0FF4E
:10166000002800D0B0E008988168027E9203114300
:10167000427ED2031143827E52031143026B531EFA
:101680009A4112031143C26811430191C07C0006C4
:10169000002807D5FFE7089800690121C90788439A
:1016A000009003E0012040050090FFE701990098B9
:1016B000014308982C22805C4000014306980843AF
:1016C000069008982021405C012817D1FFE7089870
:1016D000807E002806D1FFE706980121090408430F
:1016E00006900AE00899886D2022104388650899C1
:1016F000C86D01221043C865FFE7FFE70898406AFC
:1017000000280BD0FFE70898416A07229201114098
:10171000806A0143069808430690FFE7089800682E
:10172000C068724908400699084308990968C8606A
:1017300008984168032292071140C06C0143059844
:101740000843059008983C21405C012811D1FFE72F
:10175000089948680322920710400A6C10434A6CAB
:101760001043896C084305990843012108430590FB
:10177000FFE70898006800695D490840059908433B
:101780000899096808610898406803218907884218
:1017900019D0FFE70898406801218907884212D0D4
:1017A000FFE7089840680121C90788420BD0FFE78E
:1017B000504908680F2293049843089A52681A40C7
:1017C00080180860FFE7FFE7089908684A6B002166
:1017D00001F0FAFF089908688A6B474901F0F4FFA5
:1017E00008980069002808D1FFE708980168886A0E
:1017F0000F22D243104388623CE00898006901211F
:101800004905884235D1FFE700200290FFE70298A2
:10181000072810D8FFE70898006E02998900C84091
:101820000F2108400F2801D1FFE704E0FFE70298ED
:10183000401C0290EBE70298012808D1FFE70898C6
:101840000168886A0F22D2431043886210E008982A
:101850000068806A0899C8698000021F1C20024045
:101860000F20C04390400A6E104309688862FFE76A
:10187000FFE7FFE708980068002101F0B3FE089930
:10188000496B88420CD1FFE708990020C865089889
:10189000806D0121084302218843089988650FE083
:1018A0000898806D102108430221884308998865B3
:1018B000089AD16D01200143D16507A90870FFE79F
:1018C00008E00899886D10221043886507A9012057
:1018D0000870FFE7079809A90870FFE709A80078D2
:1018E0000AB080BD00000020400D03000102FEFF91
:1018F00002FCFF1F0827014004FFFF7F81B000901A
:1019000001B0704780B592B0119000200290109005
:101910000F900E900D900C900B900A9009900890EB
:1019200007900690059011980068204988423BD1A5
:10193000FFE701208003059000200A9005A800F031
:10194000BDFA002803D0FFE7FEF704FEFFE7FFE73C
:1019500017480268012109050A430260006808402F
:1019600004900498FFE7FFE71248026801210A4348
:1019700002600068084003900398FFE742200C9043
:1019800003200D90002000900E90052000070CA968
:1019900000F068F8009A0C200190114600F080FADF
:1019A000019800F072FAFFE712B080BD00240140F8
:1019B000401002403410024080B584B0029002987A
:1019C000006801F04FFE00283ED1FFE7FFE70298D4
:1019D0005421405C012804D1FFE703A902200870CC
:1019E0003AE00299542201208854FFE7FFE7029869
:1019F000FEF730FD014601A80170007800281BD1D8
:101A0000FFE70298806D012109020843144908404C
:101A10000299886502990020C865029801681C2017
:101A20000860FFE70299542200208854FFE70298DB
:101A3000006801F061FE06E0FFE7029954220020F1
:101A40008854FFE7FFE703E001A902200870FFE7E1
:101A5000019803A90870FFE703A8007804B080BDCF
:101A6000FEF1FFFF8AB00990089100200590FFE782
:101A7000089800680599C840002800D150E10898EE
:101A80000068059A012191400840069006980028B8
:101A900000D141E108984068022805D0FFE7089886
:101AA0004068122822D1FFE709980599C9088900E2
:101AB0004018006A079005984007C10E0F200246A3
:101AC0008A4007999143079108990969014005984F
:101AD0004007C00E8140079808430790079809996E
:101AE000059AD208920089180862FFE709980068F1
:101AF000079005984100032002468A4007999143C8
:101B0000079108994968014005984000814007986D
:101B100008430790079809990860089840680128C9
:101B20000FD0FFE70898406802280AD0FFE708981E
:101B30004068112805D0FFE70898406812282CD18A
:101B4000FFE70998806807900598400003218140CD
:101B50000798884307900898C1680598400081401D
:101B60000798084307900798099988600998406882
:101B700007900598012181400798884307900898AD
:101B800040681021084001090598814007980843E2
:101B90000790079809994860FFE70898406803286C
:101BA00016D0FFE70998C068079005984000032108
:101BB00081400798884307900898816805984000FD
:101BC000814007980843079007980999C860FFE784
:101BD0000898C079C006002800D49CE0059803212D
:101BE000884350494058079005988007C00E0F2140
:101BF0008140079888430790099805210907884282
:101C000003D1FFE70020049022E00998464988426A
:101C100003D1FFE70120039017E009984349884268
:101C200003D1FFE7022002900CE00999404A03200B
:101C3000052300939142019001D0009801900198F2
:101C40000290FFE702980390FFE703980490FFE7F4
:101C5000049905988007C00E8140079808430790B3
:101C600007980599032291432E4A8850314800680D
:101C70000790069907988843079008988079C007CD
:101C8000002805D0FFE70699079808430790FFE76B
:101C9000079828490860284800680790069907981F
:101CA00088430790089880798007002805D5FFE7CA
:101CB0000699079808430790FFE707981E490860B0
:101CC0001E4800680790069907988843079008986F
:101CD0008079C006002805D5FFE7069907980843D4
:101CE0000790FFE7079815490860154800680790B6
:101CF00006990798884307900898807980060028FD
:101D000005D5FFE70699079808430790FFE707986E
:101D10000B490860FFE7FFE70598401C0590A7E620
:101D20000AB07047601802400004005000080050DC
:101D3000001400508018024084180240001802402D
:101D40000418024083B0029001A801806846027026
:101D50000078002805D0FFE701A800880299886173
:101D600004E001A8008802998862FFE703B0704789
:101D7000054800687047C0462D4802680249086857
:101D8000801808607047C0464802002080B582B0C5
:101D900001A900200870032000F00EF8002804D0EC
:101DA000FFE701A90120087002E000F047F8FFE713
:101DB00001A8007802B080BD80B584B0039002A96C
:101DC000002008701A480068002829D0FFE7194849
:101DD00000680190164801687D20C000FEF7ECF90C
:101DE00001460198FEF7E8F900F0E6FC002812D160
:101DF000FFE70398032809D8FFE703990022D0439F
:101E000000F04EF803980C49086003E002A9012095
:101E10000870FFE703E002A901200870FFE703E074
:101E200002A901200870FFE702A8007804B080BD75
:101E3000D000002000000020D400002082B0FFE786
:101E40000B48026801210A430260006808400190C3
:101E50000198FFE7FFE785480268012109070A4367
:101E600002600068084000900098FFE702B07047E9
:101E70004010024080B582B0014601A801700021E7
:101E8000405602F063FB02B080BD80B582B00146CF
:101E900001A801700021405602F072FB02B080BD23
:101EA00080B584B0034603A803700291019200211B
:101EB0004056029902F07AFB04B080BD80B588B02C
:101EC000079004A90020087003A90870079880787B
:101ED0008007002878D5FFE702A900200870634832
:101EE0000068C000002810D4FFE7FFE75F480268E1
:101EF000012109070A430260006808400190019827
:101F0000FFE702A901200870FFE7E7480068032106
:101F10000902084006900698002817D0FFE70698A7
:101F200007998969884211D0FFE7DF4908680322D1
:101F300012029043069008680122120410430860C0
:101F400008689043086006980860FFE706A80078D4
:101F5000C007002818D0FFE7FFF70AFF0590FFE74A
:101F6000D1480068800700280DD4FFE7FFF700FF85
:101F70000599401AD149884204D3FFE704A90320F8
:101F8000087000E0ECE7FFE704A8007800280AD119
:101F9000FFE7C5490868032212029043079A926935
:101FA0001043086003E0049803A90870FFE702A843
:101FB0000078012807D1FFE72C49086801221207A1
:101FC00090430860FFE7FFE707980078C007002804
:101FD00009D0FFE72649086803229043079A9268D0
:101FE00010430860FFE707980078400600280AD5EC
:101FF000FFE71F490868032212039043079AD2683B
:1020000010430860FFE707984078400600280AD58B
:10201000FFE717490868032292079043079A52691D
:1020200010430860FFE707984078000700280AD5AA
:10203000FFE70F490868032292039043079A126949
:1020400010430860FFE707980068C00F012809D116
:10205000FFE7BE490868E0229043079A52681043A0
:102060000860FFE703A8007808B080BD3C1002407C
:102070005410024080B584B002900191029800286B
:1020800004D1FFE703A90120087006E10198854902
:10209000096807221140884221D9FFE78149086871
:1020A00007229043019A10430860FFF761FE0090F9
:1020B000FFE77C48006807210840019988420DD05D
:1020C000FFE7FFF755FE0099401A7C49884204D388
:1020D000FFE703A903200870DFE0EAE7FFE70298C3
:1020E0000078800700281AD5FFE70298007840079B
:1020F00000280AD5FFE7934908680B221202104313
:102100000722120390430860FFE78E4908680F22F8
:1021100012029043029AD26810430860FFE70298C7
:102120000078C007002869D0FFE7884908681C22AA
:102130009043029A92681043086002984068012810
:102140000BD1FFE7814800688003002804D4FFE733
:1021500003A901200870A0E02CE002984068002844
:102160000BD1FFE7794800684005002804D4FFE759
:1021700003A90120087090E01BE002984068032842
:102180000BD1FFE7494800688007002804D4FFE727
:1021900003A90120087080E00AE043480068800736
:1021A000002804D4FFE703A90120087075E0FFE7C9
:1021B000FFE7FFE76349086807229043029A5268E5
:1021C00010430860FFF7D4FD0090FFE75D4800680A
:1021D0003821084002994968C90088420DD0FFE7BC
:1021E000FFF7C6FD0099401A3449884204D3FFE73F
:1021F00003A90320087050E0E8E7FFE701982949A8
:10220000096807221140884221D2FFE72549086862
:1022100007229043019A10430860FFF7A9FD009040
:10222000FFE72048006807210840019988420DD047
:10223000FFE7FFF79DFD0099401A2049884204D32B
:10224000FFE703A90320087027E0EAE7FFE7029809
:102250000078400700280AD5FFE73A4908680722B6
:1022600012039043029A126910430860FFE700F0DE
:1022700027F8344909680F22120211408A090C49D3
:1022800089581F221140C8400A4908600A4800685E
:10229000FFF792FD03A90870FFE703A8007804B0D8
:1022A00080BDC046002002405C1002406010024029
:1022B000A04E000800000020D40000208913000078
:1022C00080B582B01F4800688006400F00280FD1FB
:1022D000FFE71E4800680721C9020840C10A012023
:1022E0008840019001991A48FDF766FF009025E0AB
:1022F0001448006838210840082803D1FFE7124835
:1023000000901AE00F48006838210840202804D1C6
:10231000FFE70120C00300900EE00A480068382162
:102320000840182804D1FFE77D200002009002E059
:1023300000200090FFE7FFE7FFE7FFE7009802B00B
:1023400080BDC0460810024000127A000010024012
:10235000006CDC0280B586B004900498002804D19B
:10236000FFE705A9012008700DE204980078C00776
:1023700000287CD0FFE7FB48006838210840029025
:102380000298082810D1FFE7F7480068800300286A
:1023900009D5FFE704984068002804D1FFE705A9A4
:1023A00001200870EFE161E0FFE704984068012137
:1023B0000904884207D1FFE7F649086801221204A0
:1023C000104308601DE00498406805210904884214
:1023D0000BD1FFE7EF490868012293041843086016
:1023E00008681204104308600AE0EA4908680122FC
:1023F0001304984308600868920490430860FFE75C
:10240000FFE7FFE704984068002817D0FFE7FFF7D1
:10241000AFFC0390FFE7DF480068800300280CD47E
:10242000FFE7FFF7A5FC0399401A652804D3FFE7EF
:1024300005A903200870A6E1EDE716E0FFF798FC78
:102440000390FFE7D3480068800300280CD5FFE71E
:10245000FFF78EFC0399401A652804D3FFE705A90E
:10246000032008708FE1EDE7FFE7FFE7FFE704983F
:1024700000788007002800D496E0C548006838211D
:1024800008400290029800283BD1FFE7C14800684D
:102490004005002809D5FFE70498C068002804D14A
:1024A000FFE705A9012008706DE1BB4908687F229C
:1024B00012029043049A5269120210430860029873
:1024C000002811D1FFE7B34802680721C9028A43F7
:1024D000049B1B691A43026000680840C10AAF48A8
:1024E000C840AF490860FFE7AE480068FFF764FCEA
:1024F000002804D0FFE705A90120087043E1FFE7A9
:1025000051E00498C06800282FD0FFE7A14908686F
:102510000722D2029043049A1269104308600868A7
:102520000122120210430860FFF722FC0390FFE72C
:1025300098480068400500280CD4FFE7FFF718FC16
:102540000399401A032804D3FFE705A90320087064
:1025500019E1EDE7904908687F2212029043049A3E
:1025600052691202104308601CE08A49086801227F
:10257000120290430860FFF7FBFB0390FFE78548DA
:102580000068400500280CD5FFE7FFF7F1FB039931
:10259000401A032804D3FFE705A903200870F2E0DE
:1025A000EDE7FFE7FFE7FFE7049800780007002862
:1025B00056D5FFE77648006838210840182810D122
:1025C000FFE7794800688007002809D5FFE70498ED
:1025D0008069002804D1FFE705A901200870D2E036
:1025E0003DE00498806900281CD0FFE76E49086828
:1025F000012210430860FFF7BBFB0390FFE76A4826
:102600000068800700280CD4FFE7FFF7B1FB0399AF
:10261000401A032804D3FFE705A903200870B2E09D
:10262000EDE71BE060490868012290430860FFF76E
:102630009FFB0390FFE75C480068800700280CD5EB
:10264000FFE7FFF795FB0399401A032804D3FFE740
:1026500005A90320087096E0EDE7FFE7FFE7FFE735
:10266000049800784007002800D488E001A90020E1
:1026700008704748006838210840202810D1FFE73B
:102680004A4800688007002809D5FFE70498806859
:10269000002804D1FFE705A90120087073E06DE070
:1026A000FFE704988068012806D1FFE73F490868E2
:1026B00001221043086019E00498806805280AD1B7
:1026C000FFE73A49086804221043086008680122BD
:1026D0001043086009E0354908680122904308600A
:1026E0000868042290430860FFE7FFE7FFE70498CB
:1026F0008068002818D0FFE7FFF73AFB0390FFE758
:102700002A480068800700280DD4FFE7FFF730FB58
:102710000399401A2649884204D3FFE705A90320FC
:10272000087030E0ECE717E0FFF722FB0390FFE7CB
:102730001E480068800700280DD5FFE7FFF718FB4B
:102740000399401A1A49884204D3FFE705A90320D8
:10275000087018E0ECE7FFE701A8007801280CD129
:1027600004E0C04608100240001002401149086809
:102770000122120790430860FFE7FFE7FFE705A982
:1027800000200870FFE705A8007806B080BDC046AD
:10279000081002400010024004100240006CDC02ED
:1027A00000000020D4000020601002405C100240B5
:1027B000891300003C10024080B582B0019001985E
:1027C00001F0A0F902B080BD85B003900291FFE74F
:1027D00003983C21405C012804D1FFE704A90220B2
:1027E000087057E003993C2201208854FFE7FFE777
:1027F00003993D22022088540398006840680190A4
:10280000039800688068009003980068EF49884248
:102810000BD1FFE701980F21090588430190029829
:102820004168019808430190FFE7019870218843AF
:10283000019002980168019808430190019803995A
:102840000968486003980068E049884206D0FFE7BD
:1028500003980068114988420ED1FFE70098802153
:10286000884300900298816800980843009000987F
:10287000039909688860FFE703993D220120885485
:10288000FFE703993C2200208854FFE704A90020B9
:102890000870FFE704A8007805B070470004004006
:1028A00080B582B000900098002804D1FFE701A90C
:1028B0000120087045E000983D21405C002808D1C7
:1028C000FFE700993C2200208854009800F03EF871
:1028D000FFE700993D2202208854009901C901F0C8
:1028E0001FFA0099482201208854FFE700993E22F0
:1028F0000120885400993F2288540099402288542E
:102900000099412288540099422288540099432218
:102910008854FFE7FFE7009944220120885400997A
:1029200045228854009946228854009947228854A9
:10293000FFE700993D220120885401A9002008707A
:10294000FFE701A8007802B080BD000082B00190CE
:1029500001980068094988420DD1FFE7FFE79C48CC
:1029600002680121C9030A43026000680840009020
:102970000098FFE7FFE702B07047C0460020004024
:1029800080B586B004900391029201A900200870DE
:10299000FFE704983C21405C012804D1FFE705A92A
:1029A0000220087082E004993C2201208854FFE74D
:1029B000FFE70298002816D1FFE704980068039B00
:1029C00019685A68DB6801F0C9FC049801688869D5
:1029D0000C22904388610398826804980168886992
:1029E0001043886158E00298042818D1FFE7049842
:1029F0000068039B19685A68DB6801F0FFFC0498C3
:102A00000168886903229202904388610398806874
:102A10000202049801688869104388613BE00298CB
:102A2000082816D1FFE704980068039B19685A68C4
:102A3000DB6801F01AFD04980168C8690C22904314
:102A4000C8610398826804980168C8691043C86126
:102A500020E002980C2818D1FFE704980068039B37
:102A600019685A68DB6801F037FD04980168C86985
:102A7000032292029043C86103988068020204987E
:102A80000168C8691043C86103E001A9012008700A
:102A9000FFE7FFE7FFE7FFE7FFE704993C2200209D
:102AA0008854FFE7019805A90870FFE705A800789A
:102AB00006B080BD80B582B000900098002804D197
:102AC000FFE701A90120087045E000983D21405C26
:102AD000002808D1FFE700993C2200208854009884
:102AE00000F03EF8FFE700993D220220885400994B
:102AF00001C901F015F90099482201208854FFE727
:102B000000993E220120885400993F228854009960
:102B100040228854009941228854009942228854C6
:102B2000009943228854FFE7FFE7009944220120DF
:102B30008854009945228854009946228854009967
:102B400047228854FFE700993D220120885401A9BB
:102B500000200870FFE701A8007802B080BD0000E7
:102B600080B588B0079000200690059004900390EF
:102B70000290079800681549884225D1FFE7FFE7D2
:102B8000134802680121C9020A4302600068084034
:102B900001900198FFE7FFE70E48026801210A4310
:102BA00002600068084000900098FFE7082002904B
:102BB0000220039000200490059005200690000755
:102BC00002A9FEF74FFFFFE708B080BD002C0140CF
:102BD000401002403410024080B58AB0099008913C
:102BE00007A900200870089806900C283AD8069883
:102BF000810001A0405887462D2C0008652C000854
:102C0000652C0008652C00083B2C0008652C00088A
:102C1000652C0008652C0008492C0008652C00086C
:102C2000652C0008652C0008572C000809980168DD
:102C3000C86802229043C86018E009980168C86813
:102C400004229043C86011E009980168C86808220E
:102C50009043C8600AE009980168C8681022904350
:102C6000C86003E007A901200870FFE707A8007803
:102C7000002800D088E0099800680899002201F037
:102C8000BFF8FFE709980068006A414908420FD180
:102C9000FFE709980068006A3E49084207D1FFE74C
:102CA000099801680868012290430860FFE7FFE780
:102CB000FFE70898002805D1FFE709993E22012087
:102CC000885438E00898042806D1FFE709993F2284
:102CD0000120885405902CE00898082806D1FFE7C9
:102CE000099940220120885404901FE008980C287C
:102CF00006D1FFE70999412201208854039012E090
:102D00000898102806D1FFE709994222012088542B
:102D1000029005E009994322012088540290FFE7C0
:102D200002980390FFE703980490FFE7049805904A
:102D3000FFE70598FFE70898002805D1FFE7099904
:102D40004422012088541EE00898042806D1FFE799
:102D50000999452201208854019012E0089808281A
:102D600006D1FFE70999462201208854009005E02A
:102D700009994722012088540090FFE700980190AC
:102D8000FFE70198FFE7FFE707A800780AB080BDDA
:102D9000111100004404000080B586B00490039136
:102DA000029201A900200870FFE704983C21405CD2
:102DB000012804D1FFE705A9022008706AE0049900
:102DC0003C2201208854FFE7FFE702980090142876
:102DD00052D80098810001A040588746312E000843
:102DE000792E0008792E0008792E00083D2E000863
:102DF000792E0008792E0008792E0008492E000847
:102E0000792E0008792E0008792E0008552E00082A
:102E1000792E0008792E0008792E0008612E00080E
:102E2000792E0008792E0008792E00086D2E0008F2
:102E300004980068039900F0FDFF21E00498006801
:102E4000039901F06DF81BE004980068039901F004
:102E5000EDF815E004980068039901F073F90FE0AC
:102E600004980068039901F0CBF909E00498006820
:102E7000039901F01BFA03E001A901200870FFE7A4
:102E8000FFE704993C2200208854FFE7019805A938
:102E90000870FFE705A8007806B080BD80B582B055
:102EA00000900098002804D1FFE701A901200870D4
:102EB00045E000983D21405C002808D1FFE70099DB
:102EC0003C2200208854009800F03DF8FFE700996C
:102ED0003D2202208854009901C900F021FF009989
:102EE000482201208854FFE700993E22012088549F
:102EF00000993F2288540099402288540099412229
:102F00008854009942228854009943228854FFE74C
:102F1000FFE70099442201208854009945228854F3
:102F2000009946228854009947228854FFE7009967
:102F30003D220120885401A900200870FFE701A864
:102F4000007802B080BD81B0009001B070470000F1
:102F500080B592B010900F910EA9002008700F98C4
:102F6000002805D1FFE710983E21405C0C9034E02A
:102F70000F98042805D1FFE710983F21405C0B9083
:102F800028E00F98082805D1FFE710984021405C01
:102F90000A901CE00F980C2805D1FFE710984121FA
:102FA000405C099010E00F98102805D1FFE71098B9
:102FB0004221405C089004E010984321405C089056
:102FC000FFE708980990FFE709980A90FFE70A9839
:102FD0000B90FFE70B980C90FFE70C98012804D0AA
:102FE000FFE711A901200870E5E00F98002805D13E
:102FF000FFE710993E220220885438E00F980428F9
:1030000006D1FFE710993F220220885407902CE058
:103010000F98082806D1FFE7109940220220885413
:1030200006901FE00F980C2806D1FFE71099412267
:1030300002208854059012E00F98102806D1FFE76F
:103040001099422202208854049005E010994322EE
:10305000022088540490FFE704980590FFE7059844
:103060000690FFE706980790FFE70798FFE70F989D
:1030700003900C283AD80398810001A04058874655
:10308000B5300008ED300008ED300008ED300008E4
:10309000C3300008ED300008ED300008ED300008C6
:1030A000D1300008ED300008ED300008ED300008A8
:1030B000DF30000810980168C86802221043C86019
:1030C00018E010980168C86804221043C86011E035
:1030D00010980168C86808221043C8600AE0109878
:1030E0000168C86810221043C86003E00EA90120DF
:1030F0000870FFE70EA80078002858D1FFE7109865
:1031000000680F990122019200F07AFE019810994F
:103110000968A34A9142029010D0FFE71098016815
:103120000120A04A9142029008D0FFE71098006861
:103130009D494018414248410290FFE70298C0076C
:10314000002808D0FFE710980168486C0122D203DC
:1031500010434864FFE7109800689149884206D000
:10316000FFE7109800681649884218D1FFE71098C9
:1031700000688068134908400D900D9806280DD00E
:10318000FFE70D9801210904884207D0FFE7109856
:1031900001680868012210430860FFE706E0109804
:1031A00001680868012210430860FFE7FFE70E98F6
:1031B00011A90870FFE711A8007812B080BDC046C1
:1031C000000400400700010080B58AB00990089112
:1031D00007A900200870089806900C283AD806988D
:1031E000810001A0405887461D3200085532000872
:1031F00055320008553200082B32000855320008BD
:10320000553200085532000839320008553200089E
:103210005532000855320008473200080998016805
:10322000C86802229043C86018E009980168C8681D
:1032300004229043C86011E009980168C868082218
:103240009043C8600AE009980168C868102290435A
:10325000C86003E007A901200870FFE707A800780D
:10326000002800D097E0099800680899002200F033
:10327000C7FD099801680120494A9142059010D084
:10328000FFE7099801680120464A9142059008D05D
:10329000FFE70998006844494018414248410590B9
:1032A000FFE70598C00700281AD0FFE7FFE7099855
:1032B0000068006A3D49084210D1FFE7099800689C
:1032C000006A3B49084208D1FFE709980168486C49
:1032D0000122D20390434864FFE7FFE7FFE7FFE7DF
:1032E000FFE709980068006A304908420FD1FFE7FC
:1032F00009980068006A2E49084207D1FFE709983B
:1033000001680868012290430860FFE7FFE7FFE7D4
:103310000898002805D1FFE709993E22012088542A
:1033200038E00898042806D1FFE709993F220120D8
:10333000885404902CE00898082806D1FFE70999E2
:1033400040220120885403901FE008980C2806D1E1
:10335000FFE70999412201208854029012E0089861
:10336000102806D1FFE709994222012088540190D4
:1033700005E009994322012088540190FFE7019854
:103380000290FFE702980390FFE703980490FFE79D
:103390000498FFE7FFE707A800780AB080BDC046A1
:1033A000002C01400044014000B8FEBF1111000094
:1033B0004404000080B584B0029001910298002876
:1033C00004D1FFE703A90120087039E002983D21EC
:1033D000405C002808D1FFE702993C220020885475
:1033E000029800F031F8FFE702993D220092022096
:1033F0008854029901C900F093FC009A0298016870
:103400000868082398430860019B029801680868CF
:1034100018430860029948230120C85402993E23AA
:10342000C85402993F23C85402994423C8540299AE
:103430004523C8540299885403A900200870FFE767
:1034400003A8007804B080BD81B0009001B070473F
:10345000FFE7FEE781B0009000998020086001B08E
:10346000704781B00090009901200002086001B00F
:10347000704781B00090009901204002086001B0BF
:103480007047000085B00490039102920193049864
:10349000039A03210B0511461940090D01235B0511
:1034A0001A40520D89188900401820300090009869
:1034B00000680549084002990904019A114308432C
:1034C0000099086005B0704700F000F081B00090EE
:1034D000009880688E490840801C0099886001B07F
:1034E0007047C04681B000900098806888490840C5
:1034F000801C0099886001B07047C04681B0009080
:103500000099486880229043486001B0704781B0BC
:10351000009000994868012212029043486001B06F
:10352000704781B000900099486801225202904390
:10353000486001B07047000081B00090009880683A
:1035400073490840401C0099886001B07047C0462C
:1035500081B00090009880686D490840401C009937
:10356000886001B07047C04681B0009000994868FB
:1035700080221043486001B0704781B000900099EC
:103580004868012212021043486001B0704781B0C0
:10359000009000994868012252021043486001B02F
:1035A0007047000081B000900098806801210907F1
:1035B0000843574908400099886001B07047C046E9
:1035C00081B000900098B42140587F21084001B09C
:1035D000704781B000900098006803218905084079
:1035E00001B0704782B00190009101984069009944
:1035F0000422114007228A401040C84002B07047A0
:1036000081B0009000988068C00F01B0704781B011
:1036100000900098806802210840400801B070477F
:1036200081B00090009880680121084001B0704787
:1036300081B00090009880680121084001B0704777
:1036400081B0009000988068012109070840000FB0
:1036500001B0704781B000900098C0680321084015
:1036600001B0704781B00090009880680421084044
:10367000800801B0704781B000900098C0680321B5
:10368000890208404142484101B0704782B0019030
:103690000091009A034802400199886A10438862A9
:1036A00002B07047FFFF7F0082B001900091009848
:1036B000C243044802430199886A1040886202B0FC
:1036C0007047C046000080FF83B0029001910092D5
:1036D0000298806A019A1F210A400F2319469140DF
:1036E000884300999B061940890E9140084302992E
:1036F000886203B07047000081B000900098806835
:1037000003490840001D0099886001B07047C04619
:10371000E8FFFF7F84B00390029101920298104964
:10372000884204D1FFE703980C30009009E0039829
:103730000299012252051140C90C4018A030009096
:10374000FFE700980068029AD143064B19430840EE
:103750000199114008430099086004B07047C046C1
:103760000000C07C0000388382B001900091019875
:10377000B42280587F2188430099084301998850DA
:1037800002B0704783B002900191009202984069A4
:1037900001990A02904300991140034A11400843DD
:1037A0000299486103B0704700FFFF7F82B001902B
:1037B0000091019800680321890588430099084316
:1037C0000199086002B0704783B0029001910092A5
:1037D00002984069019A04210A40072191408843D8
:1037E0000099914008430299486103B0704781B045
:1037F0000090009880680121C90708431721884379
:103800000099886001B0704780B58CB000210191AB
:103810000B910A91099108910791069105910491E4
:10382000039125480290254A0260012293074360D4
:103830008160C16001610423436101764176827633
:10384000C261416281622C23C1541203026341634D
:1038500081633C228154C164FDF788FE002803D0B7
:10386000FFE7FCF777FEFFE71548099000200A9074
:103870000B90114809A9FDF7F7FA002803D0FFE7DC
:10388000FCF768FEFFE70F480390032080050490D3
:103890000B48059003A9012008730B4807900020EE
:1038A00008900548FCF73CFF002803D0FFE7FCF731
:1038B00051FEFFE70CB080BD4C0100200024014008
:1038C00040000018FFFF17005D0C0000B0B58EB07F
:1038D00000200D900C900B900A900990FFE737485C
:1038E000026804210A4302600068084008900898B2
:1038F000FFE7FFE73148026801210A4302600068E0
:10390000084007900798FFE7FFE72C48026802216C
:103910000A4302600068084006900698FFE7052009
:10392000000700900124002202922146FEF70AFAC5
:10393000029A2348049040252946FEF703FA02988C
:1039400003210191890309910A90022003900B90B1
:103950001C4809A90591FEF785F80098029A059977
:1039600009940A940B920C92FEF77CF80098029A44
:103970000599B0230993144B0A930B92FEF772F842
:10398000019A029B0498059909950A940B930C924D
:10399000FEF768F8029B039A04980599802409941D
:1039A0000A930B92FEF75EF8FFE7084908680122C8
:1039B000120410430860FFE70EB0B0BD341002409F
:1039C00000040050000800500000111000000140E9
:1039D00080B588B00021009107910691059104916E
:1039E0000391029101911B481B4A02603022426000
:1039F0008160414AC26001618161FEF751FF002888
:103A000003D0FFE7FCF7A6FDFFE71248FFF746FAF1
:103A1000002803D0FFE7FCF79DFDFFE70D480821D4
:103A2000FFF7C8FC002803D0FFE7FCF793FDFFE792
:103A300000220192029203920592064801A9FFF723
:103A4000ABF9002803D0FFE7FCF784FDFFE708B0DF
:103A500080BDC046FC0100200020004080B58AB037
:103A60000021019109910891079106910591049116
:103A7000039120480290DF4A026030224260816058
:103A80001D4AC260016141618161FFF713F800289E
:103A900003D0FFE7FCF75EFDFFE716480821FFF7BC
:103AA00089FC002803D0FFE7FCF754FDFFE7002066
:103AB0000790089009900F4807A9FEF785FE002897
:103AC00003D0FFE7FCF746FDFFE70220039001204B
:103AD00004900020059003200690064803A90C22BC
:103AE000FEF74EFF002803D0FFE7FCF733FDFFE7AA
:103AF0000AB080BDB0010020FFFF0000FFE7FEE735
:103B00007047704780B584B002900298401E000E46
:103B1000002803D0FFE70120039011E00298401E27
:103B20000949086000200190C043032100F03EFDD8
:103B3000019806490860064A072111600390FFE7D3
:103B4000039804B080BDC04614E000E018E000E037
:103B500010E000E080B5FEF70FF901F067F980BDD5
:103B600080B58EB0002001900D900C900B900A90C3
:103B70000990089007900690059004900390029099
:103B800002210791012109020A910B9040200C901B
:103B900007A8FEF7DFFB002803D0FFE7FCF7DAFCFD
:103BA000FFE7072002900020039004900590069004
:103BB00002A80121FEF75EFA002803D0FFE7FCF718
:103BC000C9FCFFE70EB080BD0120C00601490860B6
:103BD0007047C04608ED00E080B55048406A006973
:103BE0008007002815D5FFE71320FEF743F94B485F
:103BF000426A0221C9431161BC21405C032803D100
:103C0000FFE7FCF7A7FC03E0002000F0BBFDFFE7A7
:103C1000FFE780BD80B54148006F0069C0070028FC
:103C200010D0FFE73D48026F0121C9431161BC215B
:103C3000405C032804D1FFE7002000F0A3FD00E072
:103C4000FFE7FFE780BDC04680B586B03248006818
:103C5000C00600285DD5FFE70E20FEF70BF92E49C0
:103C600008681022904308602C48BC21405C03285F
:103C70004BD1FFE729480068002805D1FFE7274816
:103C8000006F406B049038E024480068042805D198
:103C9000FFE72248006F806B03902BE01F4800680D
:103CA000082805D1FFE71D48006FC06B02901EE099
:103CB0001A4800680C2805D1FFE71848006F006C0F
:103CC000019011E015480068102805D1FFE713485E
:103CD000006F806D009004E01048006FC06D009090
:103CE000FFE700980190FFE701980290FFE7029834
:103CF0000390FFE703980490FFE7049905A801806B
:103D00000188002000F010FD02E0FCF723FCFFE733
:103D1000FFE706B080BDC046102C0140080000201F
:103D200083B0029001910298006800900298BE4909
:103D3000884205D0FFE702982F4988420AD1FFE761
:103D400000987021884300900198416800980843CA
:103D50000090FFE70298B449884214D0FFE7029828
:103D6000254988420FD0FFE70298244988420AD0AB
:103D7000FFE70298F149884205D0FFE70298F04931
:103D800088420BD1FFE70098032109028843009085
:103D90000198C168009808430090FFE700988021CF
:103DA0008843019949690843009000980299086086
:103DB000019880680299C862019800680299886237
:103DC0000298DD4988420AD0FFE70298DB49884221
:103DD00005D0FFE70298DA49884205D1FFE701984C
:103DE000006902990863FFE702990120486103B066
:103DF0007047C046002C01400004004000200040F5
:103E000084B0039002910192029A1F210A4001207E
:103E100090400090009B039A106A98431062019AA8
:103E20000298084082400399086A1043086204B06F
:103E30007047000085B0049003910499086A01223C
:103E4000904308620498006A0190049840680090CA
:103E50000498806902900298B6490840029002983E
:103E60000321884302900398016802980843029056
:103E700001980221884301900398816801980843C2
:103E800001900498DB4988420AD0FFE70498DA4998
:103E9000884205D0FFE70498D84988420ED1FFE751
:103EA00001980821884301900398C168019808434C
:103EB00001900198042188430190FFE70498CD49BF
:103EC00088420AD0FFE70498F649884205D0FFE708
:103ED0000498F549884214D1FFE7009801210A02AD
:103EE00090430090009849028843009003984169EC
:103EF0000098084300900398816900980843009057
:103F0000FFE7009804994860029804998861039833
:103F100040680499486301980499086205B07047A5
:103F200085B0049003910499086A102290430862B6
:103F30000498006A01900498406800900498806991
:103F400002900298AA4908400290029803210902AF
:103F50008843029003980068010202980843029087
:103F600001982021884301900398806801010198FD
:103F7000084301900498F649884212D0FFE704985C
:103F8000F449884204D1FFE70020002809D1FFE767
:103F90000498F149884213D1FFE7012000280FD18E
:103FA000FFE701988021884301900398C0680101D0
:103FB0000198084301900198402188430190FFE750
:103FC0000498E34988420AD0FFE70498E14988420F
:103FD00005D0FFE70498E049884216D1FFE7009832
:103FE00001218A02904300900098C9028843009002
:103FF0000398406981000098084300900398806905
:104000008100009808430090FFE7009804994860F9
:10401000029804998861039840680499886301981C
:104020000499086205B07047002C014085B00490E7
:104030000391049A106A01210B02984310620498BC
:10404000006A01900498406800900498C06902904A
:104050000298934A104002900298032290430290E3
:10406000039802680298104302900198490288431D
:104070000190039880680102019808430190049818
:10408000DC49884212D0FFE70498B249884204D143
:10409000FFE70020002809D1FFE70498AE498842D5
:1040A00014D1FFE70120002810D1FFE7019801217A
:1040B000CA02904301900398C0680202019810431D
:1040C00001900198890288430190FFE70498C9494B
:1040D00088420AD0FFE704989E49884205D0FFE74E
:1040E00004989D49884216D1FFE7009801210A03F0
:1040F00090430090009849038843009003984069DA
:10410000010100980843009003988069010100981C
:1041100008430090FFE700980499486002980499CA
:10412000C861039840680499C863019804990862BB
:1041300005B070478FFFFEFF002C01400044014096
:104140000048014085B004900391049A106A01214F
:104150000B03984310620498006A01900498406829
:1041600000900498C06902900298784A104002902A
:104170000298032212029043029003980068020200
:1041800002981043029001984903884301900398D4
:10419000806801030198084301900498954988427A
:1041A0000AD0FFE704986B49884205D0FFE70498DE
:1041B000694988420CD1FFE70098012189038843AF
:1041C0000090039840698101009808430090FFE740
:1041D00000980499486002980499C861039840685F
:1041E0000499086401980499086205B07047C046B4
:1041F000FF8FFFFE002C01400044014000480140B9
:1042000085B004900391049A106A01210B0498432D
:1042100010620498006A0190049840680090049825
:10422000406D029002981E4A104002900398026866
:104230000298104302900198490488430190039822
:1042400080680104019808430190049869498842F4
:104250000AD0FFE704983F49884205D0FFE7049859
:104260003D4988420CD1FFE70098012109048843A9
:104270000090039840690102009808430090FFE70E
:10428000009804994860029804994865039840682A
:104290000499886501980499086205B07047C04682
:1042A0008FFFFEFF004401400048014085B00490AC
:1042B0000391049A106A01210B0598431062049837
:1042C000006A01900498406800900498406D029044
:1042D00002981E4A10400290039800680202029859
:1042E0001043029001984905884301900398806823
:1042F000010501980843019004983E4988420AD07C
:10430000FFE704981349884205D0FFE70498124953
:1043100088420CD1FFE7009801218904884300906E
:10432000039840698102009808430090FFE70098D5
:104330000499486002980499486503984068049974
:10434000C86501980499086205B07047FF8FFFFEA9
:10435000002C0140004401400048014087B0069015
:10436000059104920393069A116A01208143116218
:104370000699896902910699096A019106991D4A6F
:104380009142009007D0FFE706981B494018414230
:1043900048410090FFE70098C007002809D0FFE7D8
:1043A00002980321884302900499029808430290DE
:1043B00004E00298012108430290FFE70298F021EF
:1043C0008843029003980001C1B20298084302900A
:1043D00001990A2081430191059901400198084300
:1043E000019002980699886101980699086207B0C1
:1043F0007047C046002C014000FCFFBF86B005900E
:104400000491039202930599086A1022904308626E
:104410000598806901900598006A00900198032131
:104420000902884301900398010201980843019012
:1044300001980F210903884301900298000381B27B
:104440000198084301900099A020814300910499AC
:10445000090101400098084300900198059988617E
:1044600000980599086206B0704786B005900491DF
:10447000039202930599086A01221202904308628E
:104480000598C06901900598006A00900198032181
:104490008843019003990198084301900198F02105
:1044A0008843019002980001C1B20198084301902D
:1044B0000098052149028843009004980A21084089
:1044C000010200980843009001980599C86100987E
:1044D0000599086206B0704786B005900491039272
:1044E00002930599086A0122120390430862059815
:1044F000C06901900598006A0090019803210902A3
:1045000088430190039801020198084301900198A3
:104510000F210903884301900298000381B201989A
:1045200008430190009805214903884300900498AE
:104530000A2108400103009808430090019805995A
:10454000C86100980599086206B0704781B00146BD
:10455000684601700021405600280DD4FFE76846E8
:1045600001781F2001400120884004490860BFF302
:104570004F8FBFF36F8FFFE701B0704780E100E01E
:1045800081B001466846017000214056002809D4D8
:10459000FFE7684601781F2001400120884002495A
:1045A0000860FFE701B0704700E100E070B582B03D
:1045B000024601A80270009100214056002816D43E
:1045C000FFE7002401A908570322D3431840174AE4
:1045D000805809578C07E50EFF24AC40A043009C8F
:1045E000A401E4B2AC402043194088501AE001A96C
:1045F00008780F24204008380322D34318400A4A81
:104600008058002549578D07EE0EFF25B540A84379
:10461000009DAD01EDB2B540284321400839194055
:104620008850FFE702B070BD1CED00E000E400E040
:10463000B0B581B06B4618701978C822104648434F
:10464000C6490C18BC25012060551C7810466043F3
:104650000C18C025002060511B785A438918C422C9
:10466000885401B0B0BDC04680B5052000070121C7
:104670000022FDF767FB80BD80B505200007012201
:104680001146FDF75FFB80BD10B584B003A9009112
:104690000870124840210022FDF754FB0098017871
:1046A000C82213464B43AD49CB18C0241B59029373
:1046B00003785A438918C422895C01AA11700078D2
:1046C000FFF7B6FF0298002805D0FFE7029901A87E
:1046D00000788847FFE704B010BDC04600040050D2
:1046E00080B584B0014603A8029001700078C8210B
:1046F00000914143F048019041188868898901225E
:10470000FDF720FB009A0199029803785A438A1812
:10471000BC230321D15400784B218A000A2100F0E8
:104720000BFA04B080BDC04680B586B0024605A82D
:10473000027004AA11800078C8214143F74840184C
:10474000BC21405C03281AD1FFE705A8039000783C
:10475000C82201924243F149029188187030895869
:10476000FEF73AFA019A0299039803785A438A1895
:10477000C4230221D154007800F076FA00E0FFE76C
:1047800006B080BD80B586B0014605A801700078EE
:10479000C8214143E1484018BC21405C022811D1A6
:1047A000FFE705A804900078C8214143DB48411881
:1047B000084624304968FEF707FD04980078FFF7A3
:1047C0008FFF42E005A80078C8214143F748401810
:1047D000BC21405C03281AD1FFE705A803900078AC
:1047E000C82201924243F1490291881870308958D9
:1047F000FEF7F2F9019A0299039803785A438A184E
:10480000C4230121D154007800F02EFA1CE005A841
:104810000078C8214143E5484018BC21405C042889
:1048200011D1FFE705A800900078C8214143DF4877
:104830004118084624304968FEF7C6FC0098007805
:10484000FFF722FFFFE7FFE7FFE706B080BDC046A6
:1048500080B58CB000200B900A900990032108913C
:1048600007900120069002200590FFE73948026872
:104870000121C9020A4302600068084004900498BC
:10488000FFE7FFE7334802680121C9030A430260DA
:104890000068084003900398FFE7FFE72E4802688E
:1048A00001210A4302600068084002900298FFE775
:1048B00005200007082101910122FDF743FA00F0CD
:1048C0008FF80199E1482430FEF774FD002803D0E9
:1048D000FFE7FBF73FFEFFE7F9487030FEF7EAF825
:1048E000002803D0FFE7FBF735FEFFE7F448703000
:1048F00009A9FDF769FF002803D0FFE7FBF72AFEAF
:10490000FFE7EF480268703005A9FEF739F8002884
:1049100003D0FFE7FBF71EFEFFE7E948026F1168CF
:10492000042319431160426A116819431160016F31
:10493000C86801221043C8600D2000220092114671
:10494000FDF7AEFA009A0E201146FDF7A9FA00987D
:104950000CB080BD4010024034100240080000201E
:1049600080B582B0014601A801700078022806D007
:10497000FFE701A80078012801D0FFE72CE001A89B
:10498000007816494978884204D0FFE7134900208F
:104990008860FFE70199114841708068C0087C2851
:1049A00005D8FFE70D498868401C8860FFE70B4980
:1049B0000878497888420FD0FFE7084880680528C2
:1049C0000AD3FFE70548417801700078801E414214
:1049D000484100F03DF9FFE702B080BD38010020FA
:1049E000B0B586B0064A01A9084618CA18C038CA28
:1049F00038C005200007FDF735F806B0B0BDC04649
:104A00008C4E000881B0194A1068009000980F2160
:104A1000090388430090009905200303194300917E
:104A2000009911600107086800900098C022D243E5
:104A30001040009000988023184300900098086070
:104A40000B4908680090009810400090009808609A
:104A50000849086800900098082290430090009848
:104A6000104300900098086001B07047200000508B
:104A7000080000500400005080B584B003900D2061
:104A80000190FDF7F7F90E200290FDF7F3F9E048E9
:104A9000026F1168012399431160016F1020C04318
:104AA0000861FFF7AFFF0198FDF7EFF90298FDF7F6
:104AB000ECF9002004B080BD08000020B0B58AB039
:104AC00009900020019008900790069005900490AE
:104AD00003900290099803901320FDF7CBF9019AF7
:104AE000CB49084624304C6A23680125AB43236038
:104AF0004C6A0223DB4323614B6A5A624A6802A96B
:104B0000FEF74AF9002803D0FFE7FBF723FDFFE794
:104B10001320FDF7BAF900200AB0B0BD080000204C
:104B200080B575480268516801231B021943516022
:104B3000FCF742FF80BDC04610B588B0034607A809
:104B400000900370069105920078C82101914143BD
:104B5000AF4802904018C16905988847009A0199AA
:104B6000029814780B466343C3181C6F0123039308
:104B7000DB432361127851434018006A8047039A4F
:104B800050484021FDF7DEF800200490FFE704982C
:104B9000411C0491632801DCFFE7F8E74948402104
:104BA0000022FDF7CFF808B010BDC0460800002075
:104BB000094900200860094908681022104308606C
:104BC000074908680122130318430860054908686B
:104BD000104308607047C046242C01400C2C014053
:104BE000202C0140002C014080B584B0014603A870
:104BF000009001700078C8210191414384480290DF
:104C0000401881697D2080008847009A01990298A8
:104C100012785143401840698047009A01990298E0
:104C2000127851434118886889890022FDF78AF873
:104C3000009A01990298127851434118084624308D
:104C40004968FEF785F904B080BDC0460800002021
:104C500080B582B0014601A80170007801210840AA
:104C600000F050F802B080BD80B584B0014603A8C2
:104C7000009001700078C82101914143644802907E
:104C80004018816905208847009A01990298127896
:104C900051434118BC22042088540A484021012273
:104CA000FDF750F8009A0199029812785143411883
:104CB000084624304968FEF74BF904B080BDC04671
:104CC000080000200004005080B582B00020019050
:104CD000FDF75CF8FEF744FFFEF7F8FDFEF794FDE4
:104CE000FEF7BCFEFEF774FE0348FBF73AFC00F04B
:104CF00091F8FFE7FEE7C0464C01002080B5FFF7C2
:104D00000FFF80BD80B582B0014601A80170007818
:104D1000C007002803D0FFE7FFF7AEFC02E0FFF773
:104D2000A3FCFFE702B080BD704700207047000081
:104D300080B584B0014602A8017000783349097833
:104D4000884204DBFFE70020C043039022E002A872
:104D500000900078FFF76CFC00980078C821414370
:104D60002B4840180069002811D0FFE702A80078FE
:104D7000C8214143264840180069804701900198A6
:104D8000002803D0FFE70198039003E0FFE700202D
:104D90000390FFE7039804B080BDC046B0B584B06F
:104DA000024602A8027001910078184909788842E9
:104DB00004DBFFE70020C043039024E002A8007852
:104DC000C821414312484018BC21405C012804D04E
:104DD000FFE70120C043039015E002A80278C82332
:104DE000194651430A4A5418BC25022161550199BC
:104DF00004786343D218C023D1500078FFF7F4FE43
:104E000000200390FFE7039804B0B0BD0400002029
:104E10000800002080B5FFF771FFFFF786FF002034
:104E2000FFF786FF14490120087080BD80B5124845
:104E30000078012801D0FFE71DE010490B681048F9
:104E40004268D21842600B680E4A1168C918116096
:104E50004068322807D3FFE70949002048600A4923
:104E6000FFF79CFFFFE7074800680A2803D3FFE726
:104E7000FFF75AFFFFE780BD48010020D000002067
:104E800038010020440100206149000808000000AA
:104E900011000000000000000300000000000000FE
:104EA0000000000000000000000000000000000002
:104EB00000000000000000000000000000000000F2
:104EC00001000000020000000300000004000000D8
:104ED00006000000070000000800000009000000B4
:104EE000004F000800000020D80000001C0100084E
:104EF000D84F0008D8000020780700003C010008C7
:104F0000006CDC02010000000C000000000000004A
:104F1000000000500800000051480008E149000866
:104F2000BD4A0008794A0008B14B00080020004043
:104F30003000000000000000FFFF00000000000043
:104F40000000000000000000000000000000000061
:104F50000000000000000000000000000000000051
:104F60000000000000000000000000000000000041
:104F70000000000000000000002C01403000000094
:104F8000000000002C0100000000000000000000F4
:104F90000000000000000000000000000000000011
:104FA0000000000000000000000000000000000001
:104FB00000000000000000000000000000000000F1
:104FC00000000000000000000000000000000000E1
:084FD0000100000004000000D4
:04000005080000C12E
:00000001FF
